:03000000020931C1
:0C093100787FE4F6D8FD75810A0208000A
:1008F8004C59434120534F46540048454C4C4F20D7
:06090800574F524C440061
:06082D00D2937F057E005E
:10083300E4FDFCC3ED9FEE6480F8EC6480985015F2
:10084300E4FBFA0BBB00010AEB64734A70F50DBDC0
:0508530000010C80DE35
:01085800227D
:1008A300A907E954F0F590C29212082DC293E9C446
:0E08B30054F0F590C292D293120833C29322F1
:1008C100A907E954F0F590D29212082DC293E9C418
:0E08D10054F0F590D292D293120833C29322C3
:100859008B088A09890AAB08AA09A90A1208DF6064
:1008690013050AE50A7002050914F91208DFFF12D7
:0508790008C180E2222D
:10090E007F021208A37F281208A37F061208A37F76
:04091E000C0208A31C
:0F092200758920759850758DFD758BFDD28E22CD
:08093D008F993099FDC2992247
:10087E008B088A09890AAB08AA09A90A1208DF603F
:10088E0013050AE50A7002050914F91208DFFF12B2
:05089E00093D80E2228B
:1008000012090E1209227F801208A37BFF7A087951
:10081000F81208597FC01208A37BFF7A09790212E7
:0D08200008597BFF7A09790212087E80E7F3
:1008DF00BB010689828A83E0225002E722BBFE0217
:0908EF00E32289828A83E493224A
:00000001FF
